{
  "contractName": "Scheme",
  "abi": [
    {
      "constant": true,
      "inputs": [],
      "name": "lucyBonusLimitEth1",
      "outputs": [
        {
          "name": "",
          "type": "uint256"
        }
      ],
      "payable": false,
      "stateMutability": "view",
      "type": "function"
    },
    {
      "constant": true,
      "inputs": [],
      "name": "lucyBonusPercent3",
      "outputs": [
        {
          "name": "",
          "type": "uint256"
        }
      ],
      "payable": false,
      "stateMutability": "view",
      "type": "function"
    },
    {
      "constant": true,
      "inputs": [],
      "name": "buyAmountTotal",
      "outputs": [
        {
          "name": "",
          "type": "uint256"
        }
      ],
      "payable": false,
      "stateMutability": "view",
      "type": "function"
    },
    {
      "constant": true,
      "inputs": [],
      "name": "lucyBonusLimitEth3",
      "outputs": [
        {
          "name": "",
          "type": "uint256"
        }
      ],
      "payable": false,
      "stateMutability": "view",
      "type": "function"
    },
    {
      "constant": false,
      "inputs": [],
      "name": "renounceOwnership",
      "outputs": [],
      "payable": false,
      "stateMutability": "nonpayable",
      "type": "function"
    },
    {
      "constant": true,
      "inputs": [],
      "name": "owner",
      "outputs": [
        {
          "name": "",
          "type": "address"
        }
      ],
      "payable": false,
      "stateMutability": "view",
      "type": "function"
    },
    {
      "constant": true,
      "inputs": [],
      "name": "lucyBonusPercent2",
      "outputs": [
        {
          "name": "",
          "type": "uint256"
        }
      ],
      "payable": false,
      "stateMutability": "view",
      "type": "function"
    },
    {
      "constant": true,
      "inputs": [],
      "name": "teamBonusPercent",
      "outputs": [
        {
          "name": "",
          "type": "uint256"
        }
      ],
      "payable": false,
      "stateMutability": "view",
      "type": "function"
    },
    {
      "constant": true,
      "inputs": [],
      "name": "awardAmountTotal",
      "outputs": [
        {
          "name": "",
          "type": "uint256"
        }
      ],
      "payable": false,
      "stateMutability": "view",
      "type": "function"
    },
    {
      "constant": true,
      "inputs": [],
      "name": "allBonusPercent",
      "outputs": [
        {
          "name": "",
          "type": "uint256"
        }
      ],
      "payable": false,
      "stateMutability": "view",
      "type": "function"
    },
    {
      "constant": true,
      "inputs": [],
      "name": "lucyBonusPercent1",
      "outputs": [
        {
          "name": "",
          "type": "uint256"
        }
      ],
      "payable": false,
      "stateMutability": "view",
      "type": "function"
    },
    {
      "constant": true,
      "inputs": [],
      "name": "lucyBonusLimitEth2",
      "outputs": [
        {
          "name": "",
          "type": "uint256"
        }
      ],
      "payable": false,
      "stateMutability": "view",
      "type": "function"
    },
    {
      "constant": false,
      "inputs": [
        {
          "name": "_newOwner",
          "type": "address"
        }
      ],
      "name": "transferOwnership",
      "outputs": [],
      "payable": false,
      "stateMutability": "nonpayable",
      "type": "function"
    },
    {
      "inputs": [
        {
          "name": "_rootCode",
          "type": "uint256"
        }
      ],
      "payable": false,
      "stateMutability": "nonpayable",
      "type": "constructor"
    },
    {
      "anonymous": false,
      "inputs": [
        {
          "indexed": true,
          "name": "_from",
          "type": "address"
        },
        {
          "indexed": false,
          "name": "_parentCode",
          "type": "uint256"
        }
      ],
      "name": "Sign",
      "type": "event"
    },
    {
      "anonymous": false,
      "inputs": [
        {
          "indexed": true,
          "name": "_from",
          "type": "address"
        },
        {
          "indexed": false,
          "name": "_value",
          "type": "uint256"
        }
      ],
      "name": "Buy",
      "type": "event"
    },
    {
      "anonymous": false,
      "inputs": [
        {
          "indexed": true,
          "name": "_addr",
          "type": "address"
        },
        {
          "indexed": false,
          "name": "_value",
          "type": "uint256"
        }
      ],
      "name": "Reward",
      "type": "event"
    },
    {
      "anonymous": false,
      "inputs": [
        {
          "indexed": true,
          "name": "_from",
          "type": "address"
        },
        {
          "indexed": false,
          "name": "_value",
          "type": "uint256"
        }
      ],
      "name": "Withdrawal",
      "type": "event"
    },
    {
      "anonymous": false,
      "inputs": [
        {
          "indexed": true,
          "name": "_from",
          "type": "address"
        },
        {
          "indexed": false,
          "name": "_value",
          "type": "uint256"
        }
      ],
      "name": "Exit",
      "type": "event"
    },
    {
      "anonymous": false,
      "inputs": [
        {
          "indexed": true,
          "name": "_from",
          "type": "address"
        },
        {
          "indexed": false,
          "name": "_amount",
          "type": "uint256"
        }
      ],
      "name": "ShareBonus",
      "type": "event"
    },
    {
      "anonymous": false,
      "inputs": [
        {
          "indexed": true,
          "name": "previousOwner",
          "type": "address"
        }
      ],
      "name": "OwnershipRenounced",
      "type": "event"
    },
    {
      "anonymous": false,
      "inputs": [
        {
          "indexed": true,
          "name": "previousOwner",
          "type": "address"
        },
        {
          "indexed": true,
          "name": "newOwner",
          "type": "address"
        }
      ],
      "name": "OwnershipTransferred",
      "type": "event"
    },
    {
      "constant": false,
      "inputs": [
        {
          "name": "_parentCode",
          "type": "uint256"
        }
      ],
      "name": "sign",
      "outputs": [],
      "payable": false,
      "stateMutability": "nonpayable",
      "type": "function"
    },
    {
      "constant": false,
      "inputs": [],
      "name": "buy",
      "outputs": [],
      "payable": true,
      "stateMutability": "payable",
      "type": "function"
    },
    {
      "constant": true,
      "inputs": [],
      "name": "isExit",
      "outputs": [
        {
          "name": "",
          "type": "bool"
        }
      ],
      "payable": false,
      "stateMutability": "view",
      "type": "function"
    },
    {
      "constant": true,
      "inputs": [],
      "name": "getUserCount",
      "outputs": [
        {
          "name": "",
          "type": "uint256"
        }
      ],
      "payable": false,
      "stateMutability": "view",
      "type": "function"
    },
    {
      "constant": true,
      "inputs": [],
      "name": "getUser",
      "outputs": [
        {
          "name": "addr",
          "type": "address"
        },
        {
          "name": "code",
          "type": "uint256"
        },
        {
          "name": "parentCode",
          "type": "uint256"
        },
        {
          "name": "buyAmount",
          "type": "uint256"
        },
        {
          "name": "rate",
          "type": "uint256"
        },
        {
          "name": "userRewardTotal",
          "type": "uint256"
        },
        {
          "name": "userWithdrawTotal",
          "type": "uint256"
        },
        {
          "name": "freeRewardCount",
          "type": "uint256"
        },
        {
          "name": "invite",
          "type": "uint256"
        }
      ],
      "payable": false,
      "stateMutability": "view",
      "type": "function"
    },
    {
      "constant": true,
      "inputs": [],
      "name": "getLucy",
      "outputs": [
        {
          "name": "lucyer0",
          "type": "address"
        },
        {
          "name": "lucyer1",
          "type": "address"
        },
        {
          "name": "lucyer2",
          "type": "address"
        },
        {
          "name": "lucyBonus0",
          "type": "uint256"
        },
        {
          "name": "lucyBonus1",
          "type": "uint256"
        },
        {
          "name": "lucyBonus2",
          "type": "uint256"
        }
      ],
      "payable": false,
      "stateMutability": "view",
      "type": "function"
    },
    {
      "constant": true,
      "inputs": [],
      "name": "getAllBonus",
      "outputs": [
        {
          "name": "",
          "type": "uint256"
        }
      ],
      "payable": false,
      "stateMutability": "view",
      "type": "function"
    },
    {
      "constant": false,
      "inputs": [],
      "name": "safeWithdrawal",
      "outputs": [],
      "payable": false,
      "stateMutability": "nonpayable",
      "type": "function"
    },
    {
      "constant": false,
      "inputs": [],
      "name": "safeExit",
      "outputs": [],
      "payable": false,
      "stateMutability": "nonpayable",
      "type": "function"
    },
    {
      "constant": false,
      "inputs": [
        {
          "name": "_teamBonusPercent",
          "type": "uint256"
        },
        {
          "name": "_allBonusPercent",
          "type": "uint256"
        },
        {
          "name": "_lucyBonusPercent1",
          "type": "uint256"
        },
        {
          "name": "_lucyBonusPercent2",
          "type": "uint256"
        },
        {
          "name": "_lucyBonusPercent3",
          "type": "uint256"
        },
        {
          "name": "_lucyBonusLimitEth1",
          "type": "uint256"
        },
        {
          "name": "_lucyBonusLimitEth2",
          "type": "uint256"
        },
        {
          "name": "_lucyBonusLimitEth3",
          "type": "uint256"
        }
      ],
      "name": "setBonusParams",
      "outputs": [],
      "payable": false,
      "stateMutability": "nonpayable",
      "type": "function"
    },
    {
      "constant": false,
      "inputs": [],
      "name": "shareBonus",
      "outputs": [],
      "payable": false,
      "stateMutability": "nonpayable",
      "type": "function"
    }
  ],
  "bytecode": "0x60806040523480156200001157600080fd5b5060405160208062002fdc833981018060405281019080805190602001909291905050506000336000806101000a81548173ffffffffffffffffffffffffffffffffffffffff021916908373ffffffffffffffffffffffffffffffffffffffff1602179055506005600d819055506032600e81905550600f8081905550600a6010819055506005601181905550600860128190555060046013819055506002601481905550816001819055508160028190555081600581905550620000e46200034f640100000000026401000000009004565b9050610120604051908101604052803373ffffffffffffffffffffffffffffffffffffffff1681526020018281526020016001548152602001670de0b6b3a7640000600a028152602001600281526020016000815260200160008152602001600081526020016000815250600660003373ffffffffffffffffffffffffffffffffffffffff1673ffffffffffffffffffffffffffffffffffffffff16815260200190815260200160002060008201518160000160006101000a81548173ffffffffffffffffffffffffffffffffffffffff021916908373ffffffffffffffffffffffffffffffffffffffff1602179055506020820151816001015560408201518160020155606082015181600301556080820151816004015560a0820151816005015560c0820151816006015560e082015181600701556101008201518160080155905050336007600083815260200190815260200160002060006101000a81548173ffffffffffffffffffffffffffffffffffffffff021916908373ffffffffffffffffffffffffffffffffffffffff16021790555060093390806001815401808255809150509060018203906000526020600020016000909192909190916101000a81548173ffffffffffffffffffffffffffffffffffffffff021916908373ffffffffffffffffffffffffffffffffffffffff16021790555050600a3390806001815401808255809150509060018203906000526020600020016000909192909190916101000a81548173ffffffffffffffffffffffffffffffffffffffff021916908373ffffffffffffffffffffffffffffffffffffffff160217905550505050620003a2565b6000620003776001600254620003856401000000000262001e7b179091906401000000009004565b600281905550600254905090565b600081830190508281101515156200039957fe5b80905092915050565b612c2a80620003b26000396000f30060806040526004361061013e576000357c0100000000000000000000000000000000000000000000000000000000900463ffffffff168063262ca62f14610143578063265c920f1461016e5780632fb1b25f146101e1578063412b41581461020e5780634fb8843c14610239578063534e264514610264578063642f567a146103365780636902c9ab14610361578063715018a61461038c57806382123075146103a3578063832880e7146103ba5780638da5cb5b14610449578063969b9fbc146104a057806396f9cffa146104cb578063a2fe802b146104e2578063a57f657f14610511578063a6f2ae3a1461053c578063b5cb15f714610546578063b7ff15a614610571578063c82e20251461059c578063cc61bdcf146105c7578063f19dbe7a146105f2578063f2fde38b1461061d578063fd6b7ef814610660575b600080fd5b34801561014f57600080fd5b50610158610677565b6040518082815260200191505060405180910390f35b34801561017a57600080fd5b506101df600480360381019080803590602001909291908035906020019092919080359060200190929190803590602001909291908035906020019092919080359060200190929190803590602001909291908035906020019092919050505061067d565b005b3480156101ed57600080fd5b5061020c6004803603810190808035906020019092919050505061071a565b005b34801561021a57600080fd5b50610223610c3e565b6040518082815260200191505060405180910390f35b34801561024557600080fd5b5061024e610c44565b6040518082815260200191505060405180910390f35b34801561027057600080fd5b50610279610c84565b604051808773ffffffffffffffffffffffffffffffffffffffff1673ffffffffffffffffffffffffffffffffffffffff1681526020018673ffffffffffffffffffffffffffffffffffffffff1673ffffffffffffffffffffffffffffffffffffffff1681526020018573ffffffffffffffffffffffffffffffffffffffff1673ffffffffffffffffffffffffffffffffffffffff168152602001848152602001838152602001828152602001965050505050505060405180910390f35b34801561034257600080fd5b5061034b610d74565b6040518082815260200191505060405180910390f35b34801561036d57600080fd5b50610376610d7a565b6040518082815260200191505060405180910390f35b34801561039857600080fd5b506103a1610d80565b005b3480156103af57600080fd5b506103b8610e82565b005b3480156103c657600080fd5b506103cf611262565b604051808a73ffffffffffffffffffffffffffffffffffffffff1673ffffffffffffffffffffffffffffffffffffffff168152602001898152602001888152602001878152602001868152602001858152602001848152602001838152602001828152602001995050505050505050505060405180910390f35b34801561045557600080fd5b5061045e61131d565b604051808273ffffffffffffffffffffffffffffffffffffffff1673ffffffffffffffffffffffffffffffffffffffff16815260200191505060405180910390f35b3480156104ac57600080fd5b506104b5611342565b6040518082815260200191505060405180910390f35b3480156104d757600080fd5b506104e0611348565b005b3480156104ee57600080fd5b506104f76116af565b604051808215151515815260200191505060405180910390f35b34801561051d57600080fd5b50610526611703565b6040518082815260200191505060405180910390f35b610544611709565b005b34801561055257600080fd5b5061055b611b50565b6040518082815260200191505060405180910390f35b34801561057d57600080fd5b50610586611b5d565b6040518082815260200191505060405180910390f35b3480156105a857600080fd5b506105b1611b63565b6040518082815260200191505060405180910390f35b3480156105d357600080fd5b506105dc611b69565b6040518082815260200191505060405180910390f35b3480156105fe57600080fd5b50610607611b6f565b6040518082815260200191505060405180910390f35b34801561062957600080fd5b5061065e600480360381019080803573ffffffffffffffffffffffffffffffffffffffff169060200190929190505050611b75565b005b34801561066c57600080fd5b50610675611bdc565b005b60125481565b6000809054906101000a900473ffffffffffffffffffffffffffffffffffffffff1673ffffffffffffffffffffffffffffffffffffffff163373ffffffffffffffffffffffffffffffffffffffff161415156106d857600080fd5b87600d8190555086600e8190555085600f8190555084601081905550836011819055508260128190555081601381905550806014819055505050505050505050565b600080600080339350600073ffffffffffffffffffffffffffffffffffffffff16600660008673ffffffffffffffffffffffffffffffffffffffff1673ffffffffffffffffffffffffffffffffffffffff16815260200190815260200160002060000160009054906101000a900473ffffffffffffffffffffffffffffffffffffffff1673ffffffffffffffffffffffffffffffffffffffff1614151561084f576040517f08c379a00000000000000000000000000000000000000000000000000000000081526004018080602001828103825260278152602001807f5468652077616c6c6574206163636f756e7420686173206265656e207265676981526020017f7374657265642e0000000000000000000000000000000000000000000000000081525060400191505060405180910390fd5b600073ffffffffffffffffffffffffffffffffffffffff166007600087815260200190815260200160002060009054906101000a900473ffffffffffffffffffffffffffffffffffffffff1673ffffffffffffffffffffffffffffffffffffffff161415151561094d576040517f08c379a00000000000000000000000000000000000000000000000000000000081526004018080602001828103825260238152602001807f54686520696e7669746174696f6e20636f646520646f6573206e6f742065786981526020017f73742e000000000000000000000000000000000000000000000000000000000081525060400191505060405180910390fd5b610955611e55565b9250610120604051908101604052808573ffffffffffffffffffffffffffffffffffffffff16815260200184815260200186815260200160008152602001600081526020016000815260200160008152602001600081526020016000815250600660008673ffffffffffffffffffffffffffffffffffffffff1673ffffffffffffffffffffffffffffffffffffffff16815260200190815260200160002060008201518160000160006101000a81548173ffffffffffffffffffffffffffffffffffffffff021916908373ffffffffffffffffffffffffffffffffffffffff1602179055506020820151816001015560408201518160020155606082015181600301556080820151816004015560a0820151816005015560c0820151816006015560e082015181600701556101008201518160080155905050836007600085815260200190815260200160002060006101000a81548173ffffffffffffffffffffffffffffffffffffffff021916908373ffffffffffffffffffffffffffffffffffffffff16021790555060098490806001815401808255809150509060018203906000526020600020016000909192909190916101000a81548173ffffffffffffffffffffffffffffffffffffffff021916908373ffffffffffffffffffffffffffffffffffffffff160217905550508373ffffffffffffffffffffffffffffffffffffffff167f9a10b6124411386407c4a174729b856d293832181c352e98b5cb316b96cd3059866040518082815260200191505060405180910390a260015485141515610c37576007600086815260200190815260200160002060009054906101000a900473ffffffffffffffffffffffffffffffffffffffff169150600660008373ffffffffffffffffffffffffffffffffffffffff1673ffffffffffffffffffffffffffffffffffffffff1681526020019081526020016000209050610c2e60018260080154611e7b90919063ffffffff16565b81600801819055505b5050505050565b60115481565b600080600b805490501115610c7c57600b6001600b8054905003815481101515610c6a57fe5b90600052602060002001549050610c81565b600090505b90565b600080600080600080600080600c805490501115610d5257600c6001600c8054905003815481101515610cb357fe5b906000526020600020906006020190508060000160009054906101000a900473ffffffffffffffffffffffffffffffffffffffff1696508060010160009054906101000a900473ffffffffffffffffffffffffffffffffffffffff1695508060020160009054906101000a900473ffffffffffffffffffffffffffffffffffffffff169450806003015493508060040154925080600501549150610d6b565b6000965060009550600094506000935060009250600091505b50909192939495565b60035481565b60145481565b6000809054906101000a900473ffffffffffffffffffffffffffffffffffffffff1673ffffffffffffffffffffffffffffffffffffffff163373ffffffffffffffffffffffffffffffffffffffff16141515610ddb57600080fd5b6000809054906101000a900473ffffffffffffffffffffffffffffffffffffffff1673ffffffffffffffffffffffffffffffffffffffff167ff8df31144d9c2f0f6b59d69b8b98abd5459d07f2742c4df920b25aae33c6482060405160405180910390a260008060006101000a81548173ffffffffffffffffffffffffffffffffffffffff021916908373ffffffffffffffffffffffffffffffffffffffff160217905550565b600080600080600080600860003373ffffffffffffffffffffffffffffffffffffffff1673ffffffffffffffffffffffffffffffffffffffff16815260200190815260200160002060009054906101000a900460ff16151515610f73576040517f08c379a00000000000000000000000000000000000000000000000000000000081526004018080602001828103825260288152602001807f546869732077616c6c6574206163636f756e74206973206f6e2074686520626c81526020017f61636b6c6973742e00000000000000000000000000000000000000000000000081525060400191505060405180910390fd5b600660003373ffffffffffffffffffffffffffffffffffffffff1673ffffffffffffffffffffffffffffffffffffffff16815260200190815260200160002095508560030154945085600501549350856006015492508484101515611040576040517f08c379a000000000000000000000000000000000000000000000000000000000815260040180806020018281038252600f8152602001807f436f7374207265636f76657265642e000000000000000000000000000000000081525060200191505060405180910390fd5b6110538386611e9790919063ffffffff16565b915061109061106b8486611e9790919063ffffffff16565b611082600454600354611e9790919063ffffffff16565b611e7b90919063ffffffff16565b905080821115151561110a576040517f08c379a000000000000000000000000000000000000000000000000000000000815260040180806020018281038252600e8152602001807f4c61636b206f662066756e64732e00000000000000000000000000000000000081525060200191505060405180910390fd5b84866006018190555061112885600354611e9790919063ffffffff16565b60038190555061114384600454611e9790919063ffffffff16565b6004819055506001600860008860000160009054906101000a900473ffffffffffffffffffffffffffffffffffffffff1673ffffffffffffffffffffffffffffffffffffffff1673ffffffffffffffffffffffffffffffffffffffff16815260200190815260200160002060006101000a81548160ff0219169083151502179055503373ffffffffffffffffffffffffffffffffffffffff166108fc839081150290604051600060405180830381858888f1935050505015801561120b573d6000803e3d6000fd5b503373ffffffffffffffffffffffffffffffffffffffff167f22d324652c93739755cf4581508b60875ebdd78c20c0cff5cf8e23452b299631836040518082815260200191505060405180910390a2505050505050565b600080600080600080600080600080600660003373ffffffffffffffffffffffffffffffffffffffff1673ffffffffffffffffffffffffffffffffffffffff16815260200190815260200160002090508060000160009054906101000a900473ffffffffffffffffffffffffffffffffffffffff169950806001015498508060020154975080600301549650806004015495508060050154945080600601549350806007015492508060080154915050909192939495969798565b6000809054906101000a900473ffffffffffffffffffffffffffffffffffffffff1681565b60105481565b60008060008060009054906101000a900473ffffffffffffffffffffffffffffffffffffffff1673ffffffffffffffffffffffffffffffffffffffff163373ffffffffffffffffffffffffffffffffffffffff161415156113a857600080fd5b6113bf600454600354611e9790919063ffffffff16565b9250600083111515611439576040517f08c379a00000000000000000000000000000000000000000000000000000000081526004018080602001828103825260148152602001807f4e6f20726564656d7074696f6e20626f6e75732e00000000000000000000000081525060200191505060405180910390fd5b611461600d54611453606486611eb090919063ffffffff16565b611ec690919063ffffffff16565b91506114d982600660008060009054906101000a900473ffffffffffffffffffffffffffffffffffffffff1673ffffffffffffffffffffffffffffffffffffffff1673ffffffffffffffffffffffffffffffffffffffff16815260200190815260200160002060050154611e7b90919063ffffffff16565b600660008060009054906101000a900473ffffffffffffffffffffffffffffffffffffffff1673ffffffffffffffffffffffffffffffffffffffff1673ffffffffffffffffffffffffffffffffffffffff1681526020019081526020016000206005018190555061155582600454611e7b90919063ffffffff16565b6004819055506000809054906101000a900473ffffffffffffffffffffffffffffffffffffffff1673ffffffffffffffffffffffffffffffffffffffff167f619caafabdd75649b302ba8419e48cccf64f37f1983ac4727cfb38b57703ffc9836040518082815260200191505060405180910390a26115f2600e546115e4606486611eb090919063ffffffff16565b611ec690919063ffffffff16565b90506115fd81611efe565b61161281600454611e7b90919063ffffffff16565b600481905550600b8190806001815401808255809150509060018203906000526020600020016000909192909190915055506000600a80549050111561165c5761165b836120bb565b5b3373ffffffffffffffffffffffffffffffffffffffff167f4bbf615dcc786df915d68d6680d0d887b6f82d325c610d4bf19b6da2782d50b2846040518082815260200191505060405180910390a2505050565b6000600860003373ffffffffffffffffffffffffffffffffffffffff1673ffffffffffffffffffffffffffffffffffffffff16815260200190815260200160002060009054906101000a900460ff16905090565b600d5481565b6000806000600860003373ffffffffffffffffffffffffffffffffffffffff1673ffffffffffffffffffffffffffffffffffffffff16815260200190815260200160002060009054906101000a900460ff161515156117f6576040517f08c379a00000000000000000000000000000000000000000000000000000000081526004018080602001828103825260288152602001807f546869732077616c6c6574206163636f756e74206973206f6e2074686520626c81526020017f61636b6c6973742e00000000000000000000000000000000000000000000000081525060400191505060405180910390fd5b33925034915060008211151561189a576040517f08c379a00000000000000000000000000000000000000000000000000000000081526004018080602001828103825260278152602001807f546865207075726368617365206d75737420626520677265617465722074686181526020017f6e207a65726f2e0000000000000000000000000000000000000000000000000081525060400191505060405180910390fd5b6118ef82600660008673ffffffffffffffffffffffffffffffffffffffff1673ffffffffffffffffffffffffffffffffffffffff16815260200190815260200160002060030154611e7b90919063ffffffff16565b9050670de0b6b3a7640000600a028111151515611974576040517f08c379a000000000000000000000000000000000000000000000000000000000815260040180806020018281038252601c8152602001807f457863656564696e6720746865206d6178696d756d206c696d69742e0000000081525060200191505060405180910390fd5b61198982600354611e7b90919063ffffffff16565b60038190555080600660008573ffffffffffffffffffffffffffffffffffffffff1673ffffffffffffffffffffffffffffffffffffffff168152602001908152602001600020600301819055506119df8161254d565b600660008573ffffffffffffffffffffffffffffffffffffffff1673ffffffffffffffffffffffffffffffffffffffff168152602001908152602001600020600401819055508273ffffffffffffffffffffffffffffffffffffffff167fe3d4187f6ca4248660cc0ac8b8056515bac4a8132be2eca31d6d0cc170722a7e836040518082815260200191505060405180910390a2611a90670de0b6b3a7640000601454611ec690919063ffffffff16565b81101515611aff57600a8390806001815401808255809150509060018203906000526020600020016000909192909190916101000a81548173ffffffffffffffffffffffffffffffffffffffff021916908373ffffffffffffffffffffffffffffffffffffffff160217905550505b611b4b600660008573ffffffffffffffffffffffffffffffffffffffff1673ffffffffffffffffffffffffffffffffffffffff1681526020019081526020016000206002015483612587565b505050565b6000600980549050905090565b60045481565b600e5481565b600f5481565b60135481565b6000809054906101000a900473ffffffffffffffffffffffffffffffffffffffff1673ffffffffffffffffffffffffffffffffffffffff163373ffffffffffffffffffffffffffffffffffffffff16141515611bd057600080fd5b611bd9816127f9565b50565b600080600860003373ffffffffffffffffffffffffffffffffffffffff1673ffffffffffffffffffffffffffffffffffffffff16815260200190815260200160002060009054906101000a900460ff16151515611cc7576040517f08c379a00000000000000000000000000000000000000000000000000000000081526004018080602001828103825260288152602001807f546869732077616c6c6574206163636f756e74206973206f6e2074686520626c81526020017f61636b6c6973742e00000000000000000000000000000000000000000000000081525060400191505060405180910390fd5b600660003373ffffffffffffffffffffffffffffffffffffffff1673ffffffffffffffffffffffffffffffffffffffff1681526020019081526020016000209150611d2382600601548360050154611e9790919063ffffffff16565b9050600081111515611d9d576040517f08c379a000000000000000000000000000000000000000000000000000000000815260040180806020018281038252601e8152602001807f4e6f2063617368207769746864726177616c7320617661696c61626c652e000081525060200191505060405180910390fd5b611db4818360060154611e7b90919063ffffffff16565b82600601819055503373ffffffffffffffffffffffffffffffffffffffff166108fc829081150290604051600060405180830381858888f19350505050158015611e02573d6000803e3d6000fd5b503373ffffffffffffffffffffffffffffffffffffffff167f7fcf532c15f0a6db0bd6d0e038bea71d30d808c7d98cb3bf7268a95bf5081b65826040518082815260200191505060405180910390a25050565b6000611e6d6001600254611e7b90919063ffffffff16565b600281905550600254905090565b60008183019050828110151515611e8e57fe5b80905092915050565b6000828211151515611ea557fe5b818303905092915050565b60008183811515611ebd57fe5b04905092915050565b600080831415611ed95760009050611ef8565b8183029050818382811515611eea57fe5b04141515611ef457fe5b8090505b92915050565b60008060008060008060006009805490509650600095505b868610156120b157600986815481101515611f2d57fe5b9060005260206000200160009054906101000a900473ffffffffffffffffffffffffffffffffffffffff169450600660008673ffffffffffffffffffffffffffffffffffffffff1673ffffffffffffffffffffffffffffffffffffffff1681526020019081526020016000209350611fa4856128f3565b9250611fae61299b565b9150600860008673ffffffffffffffffffffffffffffffffffffffff1673ffffffffffffffffffffffffffffffffffffffff16815260200190815260200160002060009054906101000a900460ff1615801561200a5750600083115b156120a45761203482612026858b611ec690919063ffffffff16565b611eb090919063ffffffff16565b905061204d818560050154611e7b90919063ffffffff16565b84600501819055508473ffffffffffffffffffffffffffffffffffffffff167f619caafabdd75649b302ba8419e48cccf64f37f1983ac4727cfb38b57703ffc9826040518082815260200191505060405180910390a25b8580600101965050611f16565b5050505050505050565b6120c3612b85565b600080600080600060c060405190810160405280600073ffffffffffffffffffffffffffffffffffffffff168152602001600073ffffffffffffffffffffffffffffffffffffffff168152602001600073ffffffffffffffffffffffffffffffffffffffff168152602001600081526020016000815260200160008152509550600094505b600385101561242057612159612a1a565b9350600660008573ffffffffffffffffffffffffffffffffffffffff1673ffffffffffffffffffffffffffffffffffffffff1681526020019081526020016000209250826003015491506121c0670de0b6b3a7640000601254611ec690919063ffffffff16565b821015156121f7576121f0600f546121e260648a611eb090919063ffffffff16565b611ec690919063ffffffff16565b905061229d565b612214670de0b6b3a7640000601354611ec690919063ffffffff16565b8210151561224b5761224460105461223660648a611eb090919063ffffffff16565b611ec690919063ffffffff16565b905061229c565b612268670de0b6b3a7640000601454611ec690919063ffffffff16565b8210151561229b5761229860115461228a60648a611eb090919063ffffffff16565b611ec690919063ffffffff16565b90505b5b5b6122b4818460050154611e7b90919063ffffffff16565b83600501819055506122d181600454611e7b90919063ffffffff16565b6004819055508373ffffffffffffffffffffffffffffffffffffffff167f619caafabdd75649b302ba8419e48cccf64f37f1983ac4727cfb38b57703ffc9826040518082815260200191505060405180910390a260008514156123755783866000019073ffffffffffffffffffffffffffffffffffffffff16908173ffffffffffffffffffffffffffffffffffffffff168152505080866060018181525050612413565b60018514156123c55783866020019073ffffffffffffffffffffffffffffffffffffffff16908173ffffffffffffffffffffffffffffffffffffffff168152505080866080018181525050612412565b60028514156124115783866040019073ffffffffffffffffffffffffffffffffffffffff16908173ffffffffffffffffffffffffffffffffffffffff1681525050808660a00181815250505b5b5b8480600101955050612148565b600c869080600181540180825580915050906001820390600052602060002090600602016000909192909190915060008201518160000160006101000a81548173ffffffffffffffffffffffffffffffffffffffff021916908373ffffffffffffffffffffffffffffffffffffffff16021790555060208201518160010160006101000a81548173ffffffffffffffffffffffffffffffffffffffff021916908373ffffffffffffffffffffffffffffffffffffffff16021790555060408201518160020160006101000a81548173ffffffffffffffffffffffffffffffffffffffff021916908373ffffffffffffffffffffffffffffffffffffffff160217905550606082015181600301556080820151816004015560a0820151816005015550505050505050505050565b6000612580826125726002670de0b6b3a7640000600a02611ec690919063ffffffff16565b611eb090919063ffffffff16565b9050919050565b6000806000806007600087815260200190815260200160002060009054906101000a900473ffffffffffffffffffffffffffffffffffffffff169350600860008573ffffffffffffffffffffffffffffffffffffffff1673ffffffffffffffffffffffffffffffffffffffff16815260200190815260200160002060009054906101000a900460ff1615801561261f57506001548614155b156127f157600660008573ffffffffffffffffffffffffffffffffffffffff1673ffffffffffffffffffffffffffffffffffffffff1681526020019081526020016000209250600583600701541080156126795750600085115b1561273d57612692606486611eb090919063ffffffff16565b91506126a982600454611e7b90919063ffffffff16565b6004819055506126c6828460050154611e7b90919063ffffffff16565b83600501819055506126e660018460070154611e7b90919063ffffffff16565b83600701819055508373ffffffffffffffffffffffffffffffffffffffff167f619caafabdd75649b302ba8419e48cccf64f37f1983ac4727cfb38b57703ffc9836040518082815260200191505060405180910390a25b600090506000836004015411156127f057612765836004015486611eb090919063ffffffff16565b905061277c81600454611e7b90919063ffffffff16565b600481905550612799818460050154611e7b90919063ffffffff16565b83600501819055508373ffffffffffffffffffffffffffffffffffffffff167f619caafabdd75649b302ba8419e48cccf64f37f1983ac4727cfb38b57703ffc9826040518082815260200191505060405180910390a25b5b505050505050565b600073ffffffffffffffffffffffffffffffffffffffff168173ffffffffffffffffffffffffffffffffffffffff161415151561283557600080fd5b8073ffffffffffffffffffffffffffffffffffffffff166000809054906101000a900473ffffffffffffffffffffffffffffffffffffffff1673ffffffffffffffffffffffffffffffffffffffff167f8be0079c531659141344cd1fd0a4f28419497f9722a3daafe3b4186f6b6457e060405160405180910390a3806000806101000a81548173ffffffffffffffffffffffffffffffffffffffff021916908373ffffffffffffffffffffffffffffffffffffffff16021790555050565b600080600660008473ffffffffffffffffffffffffffffffffffffffff1673ffffffffffffffffffffffffffffffffffffffff1681526020019081526020016000209050612993612952600a8360080154611ec690919063ffffffff16565b612985670de0b6b3a76400006129776103e88660030154611ec690919063ffffffff16565b611eb090919063ffffffff16565b611e7b90919063ffffffff16565b915050919050565b6000612a156129b9600a600980549050611ec690919063ffffffff16565b612a07670de0b6b3a76400006129f96103e86129eb670de0b6b3a7640000600a02600354611e7b90919063ffffffff16565b611ec690919063ffffffff16565b611eb090919063ffffffff16565b611e7b90919063ffffffff16565b905090565b6000806000600a8054905042446005546040516020018084815260200183815260200182815260200193505050506040516020818303038152906040526040518082805190602001908083835b602083101515612a8c5780518252602082019150602081019050602083039250612a67565b6001836020036101000a038019825116818451168082178552505050505050905001915050604051809103902060019004811515612ac657fe5b069150612adf6001600554611e7b90919063ffffffff16565b600581905550600a82815481101515612af457fe5b9060005260206000200160009054906101000a900473ffffffffffffffffffffffffffffffffffffffff169050600860008273ffffffffffffffffffffffffffffffffffffffff1673ffffffffffffffffffffffffffffffffffffffff16815260200190815260200160002060009054906101000a900460ff1615612b7d57612b7b612a1a565b505b809250505090565b60c060405190810160405280600073ffffffffffffffffffffffffffffffffffffffff168152602001600073ffffffffffffffffffffffffffffffffffffffff168152602001600073ffffffffffffffffffffffffffffffffffffffff16815260200160008152602001600081526020016000815250905600a165627a7a72305820e3ee5230b14a0e7f02360414fd1170cd91fd2ae1f145238afdfdc992e6dd24f50029",
  "source": "pragma solidity ^0.4.24;\n\n/**\n * @title SafeMath\n * @dev Math operations with safety checks that throw on error\n */\nlibrary SafeMath {\n\n  /**\n  * @dev Multiplies two numbers, throws on overflow.\n  */\n  function mul(uint256 a, uint256 b) internal pure returns (uint256 c) {\n    // Gas optimization: this is cheaper than asserting 'a' not being zero, but the\n    // benefit is lost if 'b' is also tested.\n    // See: https://github.com/OpenZeppelin/openzeppelin-solidity/pull/522\n    if (a == 0) {\n      return 0;\n    }\n\n    c = a * b;\n    assert(c / a == b);\n    return c;\n  }\n\n  /**\n  * @dev Integer division of two numbers, truncating the quotient.\n  */\n  function div(uint256 a, uint256 b) internal pure returns (uint256) {\n    // assert(b > 0); // Solidity automatically throws when dividing by 0\n    // uint256 c = a / b;\n    // assert(a == b * c + a % b); // There is no case in which this doesn't hold\n    return a / b;\n  }\n\n  /**\n  * @dev Subtracts two numbers, throws on overflow (i.e. if subtrahend is greater than minuend).\n  */\n  function sub(uint256 a, uint256 b) internal pure returns (uint256) {\n    assert(b <= a);\n    return a - b;\n  }\n\n  /**\n  * @dev Adds two numbers, throws on overflow.\n  */\n  function add(uint256 a, uint256 b) internal pure returns (uint256 c) {\n    c = a + b;\n    assert(c >= a);\n    return c;\n  }\n}\n\n/**\n * @title Ownable\n * @dev The Ownable contract has an owner address, and provides basic authorization control\n * functions, this simplifies the implementation of \"user permissions\".\n */\ncontract Ownable {\n  address public owner;\n\n\n  event OwnershipRenounced(address indexed previousOwner);\n  event OwnershipTransferred(\n    address indexed previousOwner,\n    address indexed newOwner\n  );\n\n\n  /**\n   * @dev The Ownable constructor sets the original `owner` of the contract to the sender\n   * account.\n   */\n  constructor() public {\n    owner = msg.sender;\n  }\n\n  /**\n   * @dev Throws if called by any account other than the owner.\n   */\n  modifier onlyOwner() {\n    require(msg.sender == owner);\n    _;\n  }\n\n  /**\n   * @dev Allows the current owner to relinquish control of the contract.\n   * @notice Renouncing to ownership will leave the contract without an owner.\n   * It will not be possible to call the functions with the `onlyOwner`\n   * modifier anymore.\n   */\n  function renounceOwnership() public onlyOwner {\n    emit OwnershipRenounced(owner);\n    owner = address(0);\n  }\n\n  /**\n   * @dev Allows the current owner to transfer control of the contract to a newOwner.\n   * @param _newOwner The address to transfer ownership to.\n   */\n  function transferOwnership(address _newOwner) public onlyOwner {\n    _transferOwnership(_newOwner);\n  }\n\n  /**\n   * @dev Transfers control of the contract to a newOwner.\n   * @param _newOwner The address to transfer ownership to.\n   */\n  function _transferOwnership(address _newOwner) internal {\n    require(_newOwner != address(0));\n    emit OwnershipTransferred(owner, _newOwner);\n    owner = _newOwner;\n  }\n}\n\n/* import \"openzeppelin-solidity/contracts/math/SafeMath.sol\";\nimport \"openzeppelin-solidity/contracts/ownership/Ownable.sol\"; */\n\ncontract Scheme is Ownable {\n  using SafeMath for uint256;\n\n  uint constant DECIMALS = 1e18;\n  uint constant MAX_BUY_AMOUNT = 10 * DECIMALS;\n  uint constant MAX_RATE = 2;\n  uint constant UT_OF_ETH_RATE = 1000;\n  uint ROOT_CODE;\n  uint codeIncrement;\n  uint public buyAmountTotal;\n  uint public awardAmountTotal;\n\n  uint randNonce;\n\n  struct User {\n    address addr;\n    uint code;\n    uint parentCode;\n\n    uint buyAmount;\n    uint rate;\n\n    uint userRewardTotal;\n    uint userWithdrawTotal;\n    uint freeRewardCount;\n\n    uint invite;\n  }\n\n  struct Lucy {\n    address lucyer0;\n    address lucyer1;\n    address lucyer2;\n    uint lucyBonus0;\n    uint lucyBonus1;\n    uint lucyBonus2;\n  }\n\n  mapping (address => User) users;\n  mapping (uint => address) codes;\n  mapping (address => bool) blacklist;\n  address[] addrs;\n  address[] lucyAddrs;\n  uint[] allBonuses;\n  Lucy[] lucies;\n\n  uint public teamBonusPercent;\n  uint public allBonusPercent;\n  uint public lucyBonusPercent1;\n  uint public lucyBonusPercent2;\n  uint public lucyBonusPercent3;\n  uint public lucyBonusLimitEth1;\n  uint public lucyBonusLimitEth2;\n  uint public lucyBonusLimitEth3;\n\n  event Sign(address indexed _from, uint _parentCode);\n  event Buy(address indexed _from, uint _value);\n  event Reward(address indexed _addr, uint _value);\n  event Withdrawal(address indexed _from, uint _value);\n  event Exit(address indexed _from, uint _value);\n  event ShareBonus(address indexed _from, uint _amount);\n\n  constructor(uint _rootCode) public {\n    teamBonusPercent = 5;\n    allBonusPercent = 50;\n    lucyBonusPercent1 = 15;\n    lucyBonusPercent2 = 10;\n    lucyBonusPercent3 = 5;\n    lucyBonusLimitEth1 = 8;\n    lucyBonusLimitEth2 = 4;\n    lucyBonusLimitEth3 = 2;\n\n    ROOT_CODE = _rootCode;\n    codeIncrement = _rootCode;\n    randNonce = _rootCode;\n\n    uint code = _generateCode();\n    users[msg.sender] = User(msg.sender, code, ROOT_CODE, MAX_BUY_AMOUNT, MAX_RATE, 0, 0, 0, 0);\n    codes[code] = msg.sender;\n    addrs.push(msg.sender);\n    lucyAddrs.push(msg.sender);\n  }\n\n  function sign(uint _parentCode) public {\n    address addr = msg.sender;\n    require(users[addr].addr == address(0), 'The wallet account has been registered.');\n    require(codes[_parentCode] != address(0), 'The invitation code does not exist.');\n\n    uint code = _generateCode();\n    users[addr] = User(addr, code, _parentCode, 0, 0, 0, 0, 0, 0);\n    codes[code] = addr;\n    addrs.push(addr);\n    emit Sign(addr, _parentCode);\n\n    if (_parentCode != ROOT_CODE) {\n      address pAddr = codes[_parentCode];\n      User storage pUser = users[pAddr];\n      pUser.invite = pUser.invite.add(1);\n    }\n  }\n\n  function buy() public payable {\n    require(!blacklist[msg.sender], 'This wallet account is on the blacklist.');\n\n    address addr = msg.sender;\n    uint weiAmount = msg.value;\n    require(weiAmount > 0, 'The purchase must be greater than zero.');\n\n    uint buyAmount = users[addr].buyAmount.add(weiAmount);\n    require(buyAmount <= MAX_BUY_AMOUNT, 'Exceeding the maximum limit.');\n\n    buyAmountTotal = buyAmountTotal.add(weiAmount);\n    users[addr].buyAmount = buyAmount;\n    users[addr].rate = _getRate(buyAmount);\n    emit Buy(addr, weiAmount);\n\n    if (buyAmount >= lucyBonusLimitEth3.mul(DECIMALS)) {\n      lucyAddrs.push(addr);\n    }\n\n    _rewards(users[addr].parentCode, weiAmount);\n  }\n\n  function isExit() public view returns(bool) {\n    return blacklist[msg.sender];\n  }\n\n  function getUserCount() public view returns(uint) {\n    return addrs.length;\n  }\n\n  function getUser()\n    public\n    view\n    returns(\n      address addr,\n      uint code,\n      uint parentCode,\n\n      uint buyAmount,\n      uint rate,\n\n      uint userRewardTotal,\n      uint userWithdrawTotal,\n      uint freeRewardCount,\n\n      uint invite\n    )\n  {\n    User storage user = users[msg.sender];\n\n    addr = user.addr;\n    code = user.code;\n    parentCode = user.parentCode;\n    buyAmount = user.buyAmount;\n    rate = user.rate;\n    userRewardTotal = user.userRewardTotal;\n    userWithdrawTotal = user.userWithdrawTotal;\n    freeRewardCount = user.freeRewardCount;\n    invite = user.invite;\n  }\n\n  function getLucy()\n    public\n    view\n    returns(\n      address lucyer0,\n      address lucyer1,\n      address lucyer2,\n      uint lucyBonus0,\n      uint lucyBonus1,\n      uint lucyBonus2\n    )\n  {\n    if (lucies.length > 0) {\n      Lucy storage lucy = lucies[lucies.length - 1];\n\n      lucyer0 = lucy.lucyer0;\n      lucyer1 = lucy.lucyer1;\n      lucyer2 = lucy.lucyer2;\n      lucyBonus0 = lucy.lucyBonus0;\n      lucyBonus1 = lucy.lucyBonus1;\n      lucyBonus2 = lucy.lucyBonus2;\n    } else {\n      lucyer0 = address(0);\n      lucyer1 = address(0);\n      lucyer2 = address(0);\n      lucyBonus0 = 0;\n      lucyBonus1 = 0;\n      lucyBonus2 = 0;\n    }\n  }\n\n  function getAllBonus() public view returns(uint) {\n    if (allBonuses.length > 0) {\n      return allBonuses[allBonuses.length - 1];\n    }\n    return 0;\n  }\n\n  function safeWithdrawal() public {\n    require(!blacklist[msg.sender], 'This wallet account is on the blacklist.');\n\n    User storage user = users[msg.sender];\n\n    uint amount = user.userRewardTotal.sub(user.userWithdrawTotal);\n    require(amount > 0, 'No cash withdrawals available.');\n\n    user.userWithdrawTotal = user.userWithdrawTotal.add(amount);\n    msg.sender.transfer(amount);\n    emit Withdrawal(msg.sender, amount);\n  }\n\n  function safeExit() public {\n    require(!blacklist[msg.sender], 'This wallet account is on the blacklist.');\n\n    User storage user = users[msg.sender];\n    uint buyAmount = user.buyAmount;\n    uint userRewardTotal = user.userRewardTotal;\n    uint userWithdrawTotal = user.userWithdrawTotal;\n    require(userRewardTotal < buyAmount, 'Cost recovered.');\n\n    uint amount = buyAmount.sub(userWithdrawTotal);\n    uint unAwardAmountTotal = buyAmountTotal.sub(awardAmountTotal).add(userRewardTotal.sub(userWithdrawTotal));\n    require(amount <= unAwardAmountTotal, 'Lack of funds.');\n\n    user.userWithdrawTotal = buyAmount;\n\n    buyAmountTotal = buyAmountTotal.sub(buyAmount);\n    awardAmountTotal = awardAmountTotal.sub(userRewardTotal);\n\n    blacklist[user.addr] = true;\n\n    msg.sender.transfer(amount);\n    emit Exit(msg.sender, amount);\n  }\n\n  function setBonusParams(\n    uint _teamBonusPercent,\n    uint _allBonusPercent,\n    uint _lucyBonusPercent1,\n    uint _lucyBonusPercent2,\n    uint _lucyBonusPercent3,\n    uint _lucyBonusLimitEth1,\n    uint _lucyBonusLimitEth2,\n    uint _lucyBonusLimitEth3\n  )\n    public\n    onlyOwner\n  {\n    teamBonusPercent = _teamBonusPercent;\n    allBonusPercent = _allBonusPercent;\n    lucyBonusPercent1 = _lucyBonusPercent1;\n    lucyBonusPercent2 = _lucyBonusPercent2;\n    lucyBonusPercent3 = _lucyBonusPercent3;\n    lucyBonusLimitEth1 = _lucyBonusLimitEth1;\n    lucyBonusLimitEth2 = _lucyBonusLimitEth2;\n    lucyBonusLimitEth3 = _lucyBonusLimitEth3;\n  }\n\n  function shareBonus() public onlyOwner {\n    uint amount = buyAmountTotal.sub(awardAmountTotal);\n    require(amount > 0, 'No redemption bonus.');\n\n    uint teamBonus = amount.div(100).mul(teamBonusPercent);\n    users[owner].userRewardTotal = users[owner].userRewardTotal.add(teamBonus);\n    awardAmountTotal = awardAmountTotal.add(teamBonus);\n    emit Reward(owner, teamBonus);\n\n    uint allBonus = amount.div(100).mul(allBonusPercent);\n    _bonusAll(allBonus);\n    awardAmountTotal = awardAmountTotal.add(allBonus);\n    allBonuses.push(allBonus);\n\n    if (lucyAddrs.length > 0) {\n      _bonusLucy(amount);\n    }\n\n    emit ShareBonus(msg.sender, amount);\n  }\n\n  function _bonusLucy(uint _bonusAmount) private {\n    Lucy memory lucy = Lucy(address(0), address(0), address(0), 0, 0, 0);\n\n    for (uint i=0; i<3; i++) {\n      address addr = _randomLucyAddr();\n      User storage user = users[addr];\n      uint buyAmount = user.buyAmount;\n\n      uint lucyBonus;\n      if (buyAmount >= lucyBonusLimitEth1.mul(DECIMALS)) {\n        lucyBonus = _bonusAmount.div(100).mul(lucyBonusPercent1);\n      } else if (buyAmount >= lucyBonusLimitEth2.mul(DECIMALS)) {\n        lucyBonus = _bonusAmount.div(100).mul(lucyBonusPercent2);\n      } else if (buyAmount >= lucyBonusLimitEth3.mul(DECIMALS)) {\n        lucyBonus = _bonusAmount.div(100).mul(lucyBonusPercent3);\n      }\n      user.userRewardTotal = user.userRewardTotal.add(lucyBonus);\n      awardAmountTotal = awardAmountTotal.add(lucyBonus);\n      emit Reward(addr, lucyBonus);\n\n      if (i == 0) {\n        lucy.lucyer0 = addr;\n        lucy.lucyBonus0 = lucyBonus;\n      } else if (i == 1) {\n        lucy.lucyer1 = addr;\n        lucy.lucyBonus1 = lucyBonus;\n      } else if (i == 2) {\n        lucy.lucyer2 = addr;\n        lucy.lucyBonus2 = lucyBonus;\n      }\n    }\n\n    lucies.push(lucy);\n  }\n\n  function _randomLucyAddr() private returns(address) {\n    uint random = uint(keccak256(abi.encodePacked(now, block.difficulty, randNonce))) % lucyAddrs.length;\n    randNonce = randNonce.add(1);\n\n    address addr = lucyAddrs[random];\n    if (blacklist[addr]) {\n      _randomLucyAddr();\n    }\n\n    return addr;\n  }\n\n  function _bonusAll(uint _allBonus) private {\n    uint len = addrs.length;\n    for (uint i=0; i<len; i++) {\n      address addr = addrs[i];\n      User storage user = users[addr];\n      uint ut = _getUt(addr);\n      uint utTotal = _getUtTotal();\n      if (!blacklist[addr] && ut > 0) {\n        uint bonus = _allBonus.mul(ut).div(utTotal);\n        user.userRewardTotal = user.userRewardTotal.add(bonus);\n        emit Reward(addr, bonus);\n      }\n    }\n  }\n\n  function _rewards(uint _parentCode, uint _weiAmount) private {\n    address addr = codes[_parentCode];\n\n    if (!blacklist[addr] && _parentCode != ROOT_CODE) {\n      User storage user = users[addr];\n\n      if (user.freeRewardCount < 5 && _weiAmount > 0) {\n        uint freeAmount = _weiAmount.div(100);\n        awardAmountTotal = awardAmountTotal.add(freeAmount);\n\n        user.userRewardTotal = user.userRewardTotal.add(freeAmount);\n        user.freeRewardCount = user.freeRewardCount.add(1);\n        emit Reward(addr, freeAmount);\n      }\n\n      uint rewardAmount = 0;\n      if (user.rate > 0) {\n        rewardAmount = _weiAmount.div(user.rate);\n        awardAmountTotal = awardAmountTotal.add(rewardAmount);\n\n        user.userRewardTotal = user.userRewardTotal.add(rewardAmount);\n        emit Reward(addr, rewardAmount);\n      }\n    }\n  }\n\n  function _getUt(address _addr) private view returns(uint) {\n    User storage user = users[_addr];\n    return user.buyAmount.mul(UT_OF_ETH_RATE).div(DECIMALS).add(user.invite.mul(10));\n  }\n\n  function _getUtTotal() private view returns(uint) {\n    return buyAmountTotal.add(MAX_BUY_AMOUNT).mul(UT_OF_ETH_RATE).div(DECIMALS).add(addrs.length.mul(10));\n  }\n\n  function _getRate(uint _buyAmount) private pure returns(uint) {\n    return MAX_BUY_AMOUNT.mul(MAX_RATE).div(_buyAmount);\n  }\n\n  function _generateCode() private returns(uint) {\n    codeIncrement = codeIncrement.add(1);\n    return codeIncrement;\n  }\n}\n",
  "sourcePath": "/Users/fish/Desktop/demo/contracts/Scheme.sol",
  "compiler": {
    "name": "solc",
    "version": "0.4.24+commit.e67f0147.Emscripten.clang"
  },
  "schemaVersion": "2.0.0",
  "updatedAt": "2018-10-06T06:59:35.000Z"
}